:020000040800F2
:10000000780E0020816000086160000865600008CB
:100010006160000861600008616000080000000085
:10002000000000000000000000000000C9E400081B
:10003000616000080000000089E50008D9E50008BB
:10004000616000086160000861600008616000088C
:1000500061600008616000082926000861600008EE
:10006000616000086160000861600008616000086C
:10007000616000086160000861600008616000085C
:10008000616000086160000861600008616000084C
:10009000616000086160000861600008616000083C
:1000A000616000086160000861600008616000082C
:1000B000616000086160000861600008616000081C
:1000C000616000086160000861600008616000080C
:1000D00061600008F5E200086160000861600008E6
:1000E00061600008616000086160000861600008EC
:1000F00061600008616000086160000861600008DC
:1001000061600008616000086160000861600008CB
:1001100061600008616000086160000861600008BB
:1001200061600008616000086160000861600008AB
:1001300061600008216000086160000861600008DB
:10014000616000086160000861600008616000088B
:10015000616000086160000861600008616000087B
:10016000616000086160000861600008616000086B
:10017000616000086160000861600008616000085B
:080180006160000861600008E5
:10018800E4290108000000207C060020E429010879
:100198000000001000000010800E00201CE001206C
:0801A80000000010000000102F
:1001C00008B502480EF03EF908BD00BFF819010855
:1001D00038B5054609F0B8FA2946044609F066F82C
:1001E0002A880949204608F067FB08480EF02AF9DA
:1001F000FF21204608F040FC054909F065F84EF65D
:1002000060200FF08FF8FAE748280108E819010884
:10021000610400082DE9F047804600AF1D462248E2
:100220000E4614460EF00EF93DBB54B321893046FC
:1002300008F096FC1D480EF005F9D4F80490EA4643
:100240004846ADF5BC6D10F01BFF014618480EF096
:10025000F9F86946D8F804304846984720460DF02A
:1002600025F869462B4640F2DC5230460BF048FD3B
:100270003046104909F020F8D5460020BD46BDE8BB
:10028000F0872146304609F011F82146304609F042
:1002900013F82146304609F00BF8304609F0DCF837
:1002A0000020BD46BDE8F087041A0108101A0108B5
:1002B000241A0108C10100082DE9F04F454EDFF86E
:1002C0002C91ADF2D44D044600F1040B00236422BE
:1002D00004A9206810F092F80028F7D03388002293
:1002E000013311461020338006F074FA054648B1F8
:1002F000318848460EF0A6F832880021284606F0DC
:10030000A3FA30B1284606F06DFB284606F086FABF
:10031000DCE7059BBDF810102F4802930EF092F811
:10032000BDF8102002A9284606F0A4FA07460028C6
:10033000E8D12A480EF086F801234FF4966206A908
:10034000284606F031FB284606F0AAFA8046002827
:10035000D8D003A90DF10602404606F01BFA039B14
:100360000BEB0700194623B3BDF806A0524610F068
:10037000C9FA51461A480EF065F8404606F01CFAD4
:1003800000285744E5DA584610F07AFEDDF8C874C4
:10039000DDF8CCA4014613480EF054F82FB1BAF1A1
:1003A000000F02D050465946B847404606F0C8F9FB
:1003B000A8E70D480EF046F8BDF806300848194683
:1003C0001F440EF03FF8404606F0F6F90028C0DA68
:1003D000D9E700BF00000020E0180108F418010868
:1003E00004190108241A010820190108CC18010871
:1003F000F0B5ADF2C44D074616461D46DDF8D844AB
:1004000009B34FF4966202A810F07CFA10480CF081
:10041000CDF80023019069463868ADF800601A46AF
:10042000CDF8B854CDF8BC440FF014FE28B90948F3
:100430000EF008F80DF2C44DF0BD07480EF002F8BA
:100440000DF2C44DF0BD05480DF0FCFFDEE700BF26
:100450007C190108A01901088C1901085819010814
:1004600010B50C46018810480DF0ECFF0EF044F971
:100470000E4980B2A1FB0031C9080D480DF0E2FF22
:100480002046012108F010FF20460A4908F010FF1D
:100490002046002108F014FF20460422002108F025
:1004A00015FF002010BD00BFB0190108CDCCCCCC89
:1004B000C4190108150200082DE9F0473048314DF4
:1004C000314E324C90B00DF0BDFF0022114620207D
:1004D00006F080F980464AF6444229464046B8F183
:1004E000000F0FD006F0B0F9B0B120460DF0AAFF12
:1004F00032200EF017FF4AF6444229464046B8F132
:10050000000FEFD130460DF09DFF424641462020BE
:1005100006F060F98046EBE70EF04EFD1C4FDFF869
:100520007890009002E0304606F00AF9404606F066
:10053000B7F90646D8B1006802890F2AF3D900231B
:1005400001A90CF02FFF134CDDF804A001E0A74235
:10055000E9D054F8045B2846002DF8D001F022F9C8
:100560008245F4D1284603A901F020F9DBE748468B
:100570000DF068FF1E2168460EF056FFD6E700BF5B
:10058000381A010848280108681A0108501A010899
:10059000B40E00208C0E0020401A01082DE9F04F07
:1005A000614CD4F80090ADF51D7DB9F1000F0DD16F
:1005B000042001F049FE002281464FF49571052088
:1005C0000FF0F8FCC4F80090C9F8000000221146B2
:1005D000202006F0FFF84BF2D8525449DFF874811E
:1005E000534F834606F030F900213B2001F004FF11
:1005F00050480BF0DBFF504B059019783B2001F081
:10060000D7FE0023642251A9D9F800000FF0F6FEAE
:100610000028F6D04FF4957251A906A810F072F98F
:10062000464C54F8045B28462DB101F0B9F806A9F0
:1006300010F05AFBA0B14445F3D1414C54F8045B8F
:1006400028462DB101F0C4FD06A910F04DFB60B1A4
:10065000A742F3D1384B197881F001011970CDE729
:10066000284612A901F0A2F8E7E70646284601F05D
:10067000ADFD0028EED00296041F00F14C05CDF828
:100680000C9001E0A54242D054F8046F002EF9D03E
:100690003288002AF6D005A9584606F0EBF83288D1
:1006A0000599034627480DF0CDFE06F03DF8264B90
:1006B0002649129A93F800900968019102F10C0101
:1006C00009F1010C89B202F1040A83F800C0064660
:1006D00006F048F84FF0010C524612A9F8B1DDF8C7
:1006E00008E0019B036080F804E080F8059080F842
:1006F00006C080F807E0083010F004F9314658468B
:1007000006F03EF9304606F01BF8A542BCD10A4B74
:10071000DDF80C90197881F0010119706EE70C4832
:100720000DF090FEEAE700BFE00E00204828010827
:10073000DC0E00207C190108030000208C0E002034
:10074000B40E0020281F0108020000200400002031
:10075000441F0108B40E00202DE9F04FA7B0064653
:10076000A94802AF0C460DF06DFEA849304610F0C6
:100770007DFEA7498146304610F078FE8145C0F0E5
:10078000D08007F130084146A2480DF05BFE3046AC
:1007900010F076FC0146A0480DF054FE9F494046FB
:1007A00010F0A2FA814600287BD040469C4910F008
:1007B0009BFA18B19437BD46BDE8F08F99480DF00B
:1007C00041FE3046984910F051FE0446002800F0E2
:1007D0001681DFF89482954E2046414610F046FE81
:1007E0003146814610F042FE04460028E2D08145A1
:1007F000F2D2A0EB090BABF1070323F00703EA46A3
:10080000ADEB030D02ADABF10F0B09F10F01284663
:100810005A464FF0000910F0A1FC05F80B9028464D
:10082000834910F061FA002839D09DF908302F2B48
:1008300000F08A807F49284610F018FE8346002881
:1008400000F0DA80C21C10463A217A6010F0D0F92C
:10085000002800F0CE807A683860A0EB0B0307F127
:10086000100B11465846DA1E7B6010F04BF87B687F
:100870003A6807F190010B4407F1080003F8839CE4
:10088000511C10F09BFB07F1080010F005F883B233
:100890003B606949584610F027FA00285CD1D546DC
:1008A0009AE76649304610F0E1FD654982463046D8
:1008B00010F0DCFD51468046024662480DF0C2FD54
:1008C000C245BFF477AFA8EB0A0808F1040323F090
:1008D00007036D46ADEB030D02ABA8F104080AF166
:1008E00004011846424610F039FC00F808900FF059
:1008F000D3FF81B2824654480DF0A4FD30465349DF
:1009000010F0B4FD064638B100F11F0840465049CA
:1009100010F0ACFD86423FD3AD469437BD46BDE8EE
:10092000F08FA0EB0900A0F10C0507F130082A4672
:1009300009F10C01404610F011FC07F190031D4431
:10094000002305F8603C1EE70DF1090107F1600086
:1009500010F034FBD5463FE73B6800932A463D4DF7
:100960003D485B4607F160010DF06CFDA94605F1BD
:10097000280359F8045B284655B17B6000F010FF4E
:1009800007F1600110F0B0F97B68002800F06C817D
:100990009945EED1D5461FE7801BA0F1170323F040
:1009A0000703C7F804D0ADEB030DA0F11F060DF14E
:1009B000080B41463246584610F0D0FB0BF8069023
:1009C00059462648DFF8A4800DF03CFD08F12809BF
:1009D00058F8046B304636B101F0FAFB594610F076
:1009E00083F9002844D0C145F2D1D7F804D0AD46F0
:1009F00093E71B480DF026FD07F1100B49E7194856
:100A00000DF020FDD6E600BF941A0108BC1A0108BB
:100A1000CC1A0108DC1A0108E81A0108F41A0108C6
:100A2000281E0108381E01084C1E0108841E0108FA
:100A3000981E0108B8220108241C0108041B0108A3
:100A40000C1B0108141B0108281B0108341B01089A
:100A5000541B01088C0E0020D01E0108601B0108E9
:100A6000A01E0108EC1E0108741E0108B40E00202F
:100A70001FFA8AF1304601F055FB0028B5D0834EAD
:100A8000834831680DF0DEFC33683B6040F6DC20C3
:100A900001F0DAFB7F4E804900F2DC69804661227A
:100AA00048460FF02FFF06F1400B08F23D7EB4469A
:100AB000BCE80F00DC45CEF80000CEF80410CEF8FC
:100AC0000820CEF80C3066460EF1100EEFD1734BB5
:100AD000DFF8F0A1724E07CBC8F87C07C8F8801782
:100AE000C8F88427BAE80F00D346C8F888075BF82F
:100AF0001009C8F89437C8F88C17C8F890276949C6
:100B0000C8F898074BF2D85207F110000DF09CFB83
:100B1000484610F0B5FA07F11001484410F03AF8D1
:100B200084463068CCF80000BBE80F00ACEB090E3F
:100B30000EF1050E96F804B08CF804B009EB0E0C1B
:100B400049F80E00DAF80000CCF80410CCF80820C0
:100B5000CCF81000CCF80C303A68524907F110007C
:100B60000DF072FB484610F08BFA07F11001484473
:100B700010F010F8DFF850E1844630688CF804B0CB
:100B8000CCF80000ACEB09060EF1300B0CF1050CB3
:100B9000F246BAE80F00DA45CCF80000CCF80410B1
:100BA000CCF80820CCF80C30D6460CF1100CEFD164
:100BB000DAF80000CCF8000006F13800BC223A490F
:100BC000DFF808B148440FF09DFE06F1F4004844F8
:100BD0006222364908F2DC5A0FF094FED446DE4613
:100BE000BEE80F00CCF80C30314BCCF800009E452D
:100BF000CCF80410CCF80820F3460CF1100CEED120
:100C0000BEF80030ACF800302A49502208F20E60DD
:100C10000FF078FE06F25512224907F160000DF040
:100C200013FB504610F02CFA07F1600150440FF00E
:100C3000B1FF214BA0EB0A0B1A889B7883700280CE
:100C400051460BF1030240460FF05CFE0BF102002F
:100C5000494640440FF09EFFA0EB08020132414696
:100C600020460FF04FFEC0E614495846A94610F042
:100C70003BF820B9124B0FCB5D4607C52B80594678
:100C800048463A6800F0B2FDD546A5E504000020CC
:100C90006C1B0108E41B0108801B0108241C0108CF
:100CA0000C1B0108481C0108801C0108401D01089C
:100CB000D41D0108D81D010834220108FC1E0108BA
:100CC0007C190108341C01084C1C0108A41D0108F2
:100CD000F8B543681A7D032A00D0F8BD0446588E43
:100CE000184D0BF077FC63680646588E1C7D0BF0A0
:100CF00071FC2146024614480DF0A4FB05F12807BB
:100D000055F8044B44B9BD42FAD10024314620467F
:100D1000BDE8F84001F05EBA204601F057FA031F23
:100D20004C3001E08342EED053F8042F002AF9D072
:100D30001288002AF6D031462046BDE8F84001F07E
:100D400049BA00BFB40E0020AC18010870B50820E5
:100D500084B001F079FA0024022549F64041144E8E
:100D600000950394CDE901440346018046604FF4A9
:100D7000C862104910480DF0F7FCCDE90054234635
:100D8000CDE902444FF400720C490D4D0D480DF0B1
:100D9000EBFC032200920394CDE9014423464FF477
:100DA000807209492C7009480DF0DEFC04B070BD5A
:100DB00059070008081F0108D1010008141F010885
:100DC000840E00209D0500081C1F0108B9040008BE
:100DD000F8B5054688200E46174601F035FA3B4621
:100DE00032462946044601F015F8044B04481A8897
:100DF000511C40F8224019802046F8BD860E002084
:100E0000B40E00202DE9F041054682B0F0200E46D8
:100E10001746984601F018FA3B4632462946CDF867
:100E20000080044600F03EFB054B06481A88511C22
:100E300040F822402046198002B0BDE8F08100BF92
:100E4000880E00208C0E00202DE9F0410D4682B066
:100E50001449904610F00AFB58B1C71C04463A21C9
:100E600038460FF0C5FE064600B12DB90E480DF00C
:100E7000E9FA02B0BDE8F081041BE21E39462846BB
:100E80002C440FF03FFD0023711C04F8033C68461E
:100E900010F094F868460FF0FFFCA8F8000002B0CC
:100EA000BDE8F081B8220108A01E01082DE9F04339
:100EB000164D2C6885B006460F469046994654B1AB
:100EC000CDF8009043463A4631462046FFF790FA67
:100ED00005B0BDE8F08340F2044001F0B5F900220E
:100EE00004464FF4986104200FF064F800220221B8
:100EF00020602346CDE90012CDE9022204490548CD
:100F000040F2DC520DF030FC2C60D9E7800E00205E
:100F1000881A0108B9020008F0B50546A1B000F131
:100F2000C80700F1DC06002364226946D5F8C40036
:100F30000FF064FA0028F6D03C4654F8043B01A8B0
:100F40000BB121699847B442F7D1ECE7F8B50B46ED
:100F500000AF15490546184610F088FA134910F0FD
:100F600085FA1249043010F081FA1149044610F054
:100F70007DFA844216D2021B131D23F007036E462E
:100F8000ADEB030D211D043A684610F0E7F8684602
:100F90000FF082FC2A460146C5F8C00005480DF056
:100FA00051FAB546BD46F8BDB81F0108041B01083B
:100FB0000C1B0108C01F01082DE9F04FA1B000AFC4
:100FC0000B463861AF49184610F050FA064698B300
:100FD0003046AD4910F04AFAAC49044610F046FAE2
:100FE000064660B38442F3D2051BEB1F23F00703D0
:100FF0000F3DC7F814D0ADEB030D04F10F012A46E5
:10100000684610F0ABF800230DF80530684607F18C
:101010002C0107F11A02FFF717FF07F12C019C487A
:101020007A8B0DF00FFA07F12C009A490FF05CFE55
:1010300048B9D7F814D0CBE797480DF003FA8437B6
:10104000BD46BDE8F08F7B8B7B6040F6DC4001F055
:10105000FBF8DFF864923B6900F2DC650446AE46BB
:1010600009F1300A03F13008CC46BCE80F00D44542
:10107000CEF80000CEF80410CEF80820CEF80C30E0
:10108000E1460EF1100EEFD1844BDFF830E2DFF8CD
:1010900030C207CBC4F80B07C4F80F17C4F81327E6
:1010A000BEE80700C4F81707C4F81B17C4F81F27C9
:1010B000BCE80F00C4F82407C4F82817BCE80300F4
:1010C0009EF800E084F823E7C4F83407C4F8381722
:1010D000C4F82C274146C4F8303704F23B700FF0B7
:1010E00059FDDFF8E0C1D7F810A08646BCE80F0034
:1010F000CEF80000CEF80410CEF80820CEF80C3060
:10110000BCE80F00CEF81000CEF81410CEF818206E
:10111000CEF81C300EF11F0051460FF03BFD64224B
:101120005F490FF0EFFB42465E4907F14C000DF0BE
:101130008BF807F14C000FF0A3FF8146024607F140
:101140004C01C4F8DC9B04F53E600FF0DBFB0AF1B8
:1011500060025549C7F810A007F14C000DF074F873
:1011600007F14C000FF08CFF04F6DC3808EB0903A4
:10117000824609F10809C3F804A0524608EB0900A9
:1011800007F14C010FF0BEFB3A69484907F14C00EA
:101190000DF05AF807F14C000FF072FFCA440AF143
:1011A000040B81464A4648F80A9008EB0B0007F109
:1011B0004C010FF0A7FB3B693D4903F1900207F199
:1011C0004C000DF041F807F14C000FF059FFD944E5
:1011D00009F1040A83465A4607F14C0108EB0A005C
:1011E00048F809B00FF08EFB0BEB0A0E314A0EF1F6
:1011F0000203A2FB03235B08BB6004F6DC23FB6055
:10120000BEF1000F78D000221946DFF8BCC01046AE
:1012100027E018F80990D64552464FEA092940F2CE
:10122000258118F80A2013444B4403F03F09024675
:101230001CF9099081F803904FEA934BC3F3053AE8
:10124000C3F385131CF80BB01CF80AA01CF803307C
:1012500081F800B0964581F801A08B7001F104017E
:1012600034D900F1010918F80230CE4500F1020A24
:101270004A464FEA034300F10300CAD848464FF0FC
:101280004109D7E70C200108741E0108841E0108DB
:101290001C200108241C0108EC1E0108F41A010896
:1012A00074200108D8200108E8200108F420010872
:1012B00000210108ABAAAAAA2C200108CC1A010817
:1012C0005C200108341B01086C1F01086A4B6B4A43
:1012D000A3FB0E135B0803EB4303AEEB030E52F8C4
:1012E0002E20002A08DDBB68C2EB830000F6DC205C
:1012F00020443D210FF004FC28460FF0C1FEF968A0
:10130000DFF88891DFF888A128440FF043FCDFF86C
:1013100084C18646BCE80F00CEF80000CEF8041069
:10132000BCE80300CEF80820CEF81000CEF8141068
:10133000AEEB0508B9E8070008F1180CCEF80C3040
:1013400005EB0C0308F1240E45F80C0004F2DC59FF
:1013500059609A6005EB0E008D2249490FF0D2FAD0
:101360000AF1200BCC46D646BEE80F00DE45CCF88D
:101370000000CCF80410CCF80820CCF80C30F24671
:101380000CF1100CEFD1BAE80700DFF80CE1CCF853
:101390000000CCF80410CCF80820BEE80700BAF82A
:1013A0000030ACF80C30DFF8F4C0C4F80A06C4F81A
:1013B0000E16C4F81226BCE80F00C4F81706C4F8CD
:1013C0001B16C4F81F26BCE807009EF800E0BCF816
:1013D00000C0A4F833C684F816E6C4F82336C4F86F
:1013E0002706C4F82B16C4F82F262649DFF8B0A02C
:1013F00008F1B00207F11C000CF026FF48460FF080
:101400003FFE07F11C0148440FF0C4FB0AF1300B0A
:10141000A0EB09088446D646BEE80F00DE45CCF8AE
:101420000000CCF80410CCF80820CCF80C30F246C0
:101430000CF1100CEFD1BEF800209EF80230ACF891
:1014400000208CF8023008F13302494620460FF0A4
:1014500059FA08F13200294620440FF0AFFD3B69EC
:101460007968094A2046FFF721FDE2E54B445046E2
:101470009CF90090DEE600BFABAAAAAAAC1F010847
:1014800024210108481C01084D0F0008241C0108F4
:10149000B4210108082101087C190108E421010890
:1014A000042201082DE9F04F06468BB08A4611460A
:1014B0001C4693460FF082FD514606F130000FF0B6
:1014C0007DFD214606F160000FF078FD14999C4FD8
:1014D00006F190000FF072FD0022802103200EF033
:1014E00069FD0023C6E9303040F6DC2000F0ACFE98
:1014F00000F2DC6980464D4607F1300C3C460FCCCB
:10150000644528606960AA60EB60274605F1100514
:10151000F4D18C4C8C4F0FCC2488C8F80B07A8F85A
:101520001B47C8F80F17C8F81327C8F8173707F173
:10153000200C08F21D753C460FCC6445286069609C
:10154000AA60EB60274605F11005F4D103CF2860AF
:10155000696008F2447051460FF01CFB7B4FA0EB12
:10156000090C044607F1200A3D460FCD5545206081
:101570006160A260E3602F4604F11004F4D12B787F
:1015800023700CF12100594648440FF003FB704CC6
:101590006E4F05460FCC2860696003CCAA602861B5
:1015A0006961EB6005F1180014990FF0F3FA054634
:1015B0003C460FCC544528606960AA60EB60274622
:1015C00005F11005F4D123882B8049F6404261498A
:1015D000614C624F04A80CF037FE48460FF050FDF6
:1015E0005F4A034603CA09EB030249F8030051604E
:1015F00007CCDD1D09EB050449F8050003F11305CF
:10160000143309EB03003A236160A26004A909F8CE
:1016100005300FF0BFFA07F1300EA0EB090C0446BD
:101620003D460FCD754520606160A260E3602F46A6
:1016300004F11004F4D1DFF83CE12A88AB78228071
:1016400008F2DC55A3700EF120072C46F246BAE8EA
:101650000F00BA4520606160A260E360D64604F1E5
:101660001004F3D1BEE807003E4F20606160A26025
:1016700007CFBEF80030A3813B4CC8F80A06C8F873
:101680000E16C8F812260FCCC8F81706C8F81B1695
:10169000C8F81F2607CC3F782488C8F82706C8F862
:1016A0002B16C8F82F262B49C8F823360CF1320226
:1016B00006A8A8F8334688F816760CF0C5FD28462B
:1016C0000FF0DEFC06A928440FF064FADFF8A8C08A
:1016D000A0EB050A04460CF1300E67460FCF7745A4
:1016E00020606160A260E360BC4604F11004F4D1A4
:1016F000BB783A88A370228029460AF1330240461B
:101700000FF000F90AF13200494640440FF056FC50
:1017100033464046154A42F62F41FFF7C7FB0023E8
:101720000222CDE90023CDE9023359463346FA229D
:101730000F480DF019F830460BB0BDE8F08F00BF30
:101740002C200108382201084C22010874220108CB
:1017500098220108481C0108241C0108BC22010829
:10176000B42201087C190108E4210108B90F00081E
:10177000190F0008B42101080422010810B4074C15
:101780002368042B07DC00EB83000133C0F8C8108A
:10179000C0F8DC2023605DF8044B7047DC0E0020AD
:1017A000704700BFD0F8C000704700BF10B5A0B0B0
:1017B00099B10446802268460FF0A4F800236946D8
:1017C000D4F8C4001A460EF045FC08B120B010BD94
:1017D00004480CF037FE20B010BD03480CF032FE78
:1017E00020B010BDA0190108E01F01082DE9F04F3D
:1017F00095B0074640F6DC40019200F025FDDFF889
:10180000B4E300F2DC660546B44607F130080EF199
:10181000300974460FCC4C45CCF80000CCF80410CD
:10182000CCF80820CCF80C30A6460CF1100CF0D106
:10183000D04BDFF884C3D04C07CBC5F80B07C5F8F5
:101840000F17C5F81327BCE80700C5F81707C5F838
:101850001B17C5F81F270FCCC5F82407C5F8281794
:1018600003CC9CF800C0C5F83407C5F8381705F25A
:101870003B70414685F823C7C5F82C27C5F830379B
:101880000FF088F9BD4C84460FCCCCF80000CCF8A2
:101890000410CCF80820CCF80C300FCCCCF8100099
:1018A000CCF81410CCF81820CCF81C300CF11F0028
:1018B00039460FF06FF96422B1490FF023F8424620
:1018C000B04907A80CF0C0FC07A80FF0D9FB07A986
:1018D0000446024605F53E60C5F8DC4B0FF012F8F1
:1018E00007F16002A84907A80CF0AEFC07A80FF0AA
:1018F000C7FB05F6DC3909EB040380460834C3F85E
:101900000480424609EB040007A90EF0FBFF3A46AB
:101910009E4907A80CF098FC07A80FF0B1FB4444BF
:1019200004F1040A8046424649F8048009EB0A00A3
:1019300007A90EF0E7FF07F19002954907A80CF000
:1019400083FC07A80FF09CFBD044044608F1040A6E
:10195000224649F8084007A909EB0A000EF0D2FF19
:1019600004EB0A0C8B4A0CF10203A2FB03235B0875
:10197000009305F6DC28BCF1000F52D00022864807
:101980001446414626E019F80EE0D44552464FEA87
:101990000E2E40F2E98019F80A201344734403F034
:1019A0003F0E224610F90EE081F803E04FEA934B18
:1019B000C3F3053AC3F3851310F80BB010F80AA06F
:1019C000C35C81F800B0944581F801A08B7001F1EF
:1019D000040110D904F1010E19F80230F44504F1A4
:1019E000020A72464FEA034304F10304CBD874465B
:1019F0004FF0410ED8E7674B684AA3FB0C135B0816
:101A000003EB4303ACEB030C52F82C20002A08DD57
:101A1000009BC2EB830000F6DC2028443D210FF040
:101A20006FF830460FF02CFB414630440FF0B2F80F
:101A30005B4CDFF888E184460FCCCCF80000CCF892
:101A4000041003CCCCF80820CCF81000CCF814100B
:101A5000ACEB0608BEE8070008F11804CCF80C301F
:101A6000331908F1240C305159609A6006EB0C00D0
:101A70008D224C490EF046FFDFF844E105F2DC59B7
:101A80000EF1200A4C46F446BCE80F00D445206015
:101A90006160A260E360E64604F11004F3D1BEE8A1
:101AA0000700DFF820C120606160A260BCE8070089
:101AB000BEF80030A3813C4CC5F80A06C5F80E16E6
:101AC000C5F812260FCCC5F81706C5F81B16C5F8C1
:101AD0001F2607CC9CF800C02488C5F82706C5F847
:101AE0002B16C5F82F26314985F816C608F1B00225
:101AF00003A8C5F82336A5F833460CF0A5FB4846E5
:101B00000FF0BEFA03A948440FF044F8DFF8B8E03C
:101B1000A0EB090804460EF1300AF446BCE80F00B9
:101B2000D44520606160A260E360E64604F11004E1
:101B3000F3D1BCF800209CF80230A3702280494603
:101B400008F1330228460EF0DDFE08F1320031467E
:101B500028440FF033FA3B460199154A2846FFF70F
:101B6000A5F915B0BDE8F08F7344544690F900E034
:101B70001AE700BFF41A01085C200108341B0108B1
:101B800074200108D8200108E8200108F420010889
:101B900000210108ABAAAAAA6C1F0108AC1F01080A
:101BA0000821010824210108E4210108481C01083A
:101BB0004D0F00082C200108CC1A0108241C010834
:101BC000B42101087C190108042201082DE9F04F15
:101BD00093B000AF0C46B8607E480CF033FC204652
:101BE0007D490FF043FC002800F0ED80DFF8009203
:101BF000DFF8F4A18346584649460FF037FC5146BA
:101C000004460FF033FC8346002800F0DF80844256
:101C1000F1D2051BEB1F23F007030F3D6E46ADEB22
:101C2000030D04F10F012A4668460FF097FA0023CE
:101C30000DF80530684607F1280107F11602FFF795
:101C400003F907F128016548FA8A0CF0FBFB07F15C
:101C500028006349C7F80CD00FF046F808B9B5461C
:101C6000C9E740F6DC2000F0EFFA00F2DC68044639
:101C7000386058225B495C4D40460EF043FE4622D8
:101C800004F2347059490EF03DFEB96804F27A70DE
:101C90000EF080FF04460FCDDFF86CC1E3602D78B5
:101CA0002060A4EB080325746160A2607B6011349E
:101CB0000CF1200E65460FCD754520606160A26075
:101CC000E360AC4604F11004F4D1DCF80000484DA8
:101CD00020600FCD7D6805F1340E08EB0E0405F190
:101CE000430C48F80E006160A260E36008EB0C0052
:101CF000F9683D4D0EF04EFF04460FCDDFF80CC1E4
:101D0000E3602D782060A4EB080325746160A26075
:101D1000FB6011340CF1300E65460FCD7545206027
:101D20006160A260E360AC4604F11004F4D128685D
:101D300020603A68AB88DFF8D8E0A38002F2DC5577
:101D4000AC4674460FCCCCF80C302A4BCCF80000D3
:101D50009C42CCF80410CCF80820A6460CF1100CDC
:101D6000EFD12388ACF800303B68234903F20E60C2
:101D700050220EF0C7FDFA682049463207F11800DC
:101D80000CF062FA28460FF07BF907F1180128449D
:101D90000EF000FF1A4B441B29463D681A889B78B9
:101DA00083700280E21C28460EF0ACFDA01C414668
:101DB00028440FF003F9002328461A46F98AFFF752
:101DC00075F8B54617E70F480CF03CFB4C37BD469D
:101DD000BDE8F08F5C230108742301081C20010872
:101DE000241C010884230108841E0108E023010843
:101DF000741E0108D41D0108D81D0108481C0108E3
:101E000034220108EC1E0108282401084C24010892
:101E1000A41D01082DE9F04F074687B08A461146F8
:101E20009B4691460FF0CAF800223A864FF495710E
:101E300005200EF0BFF8C7F8840040F6DC2000F063
:101E400003FADFF860C200F2DC68064645460CF192
:101E5000300E64460FCC744528606960AA60EB6060
:101E6000A44605F11005F4D1864CDFF83CC20FCC36
:101E70002478C6F80B0786F81B47C6F80F17C6F874
:101E80001327C6F817370CF1200E06F21C756446AE
:101E90000FCC744528606960AA60EB60A44605F128
:101EA0001005F4D1BCE803002860696006F24370B5
:101EB00051460EF06FFEDFF8F4C1A0EB080E0446A9
:101EC0000CF1200A65460FCD554520606160A26087
:101ED000E360AC4604F11004F4D12B7823700EF1CA
:101EE0002100494640440EF055FE674C05460FCC94
:101EF0002860696003CCAA6028616961EB6005F124
:101F0000180059460EF046FEDFF8A0C105466446AB
:101F10000FCC544528606960AA60EB60A44605F1C7
:101F20001005F4D123882B8049F640425749584C7C
:101F300068460CF089F940460FF0A2F8554A03466E
:101F400003CA08EB030248F80300516007CCDD1D0B
:101F500008EB050448F8050003F11305143308EBFA
:101F600003003A236160A260694608F805300EF06C
:101F700011FEDFF83CC1A0EB080E04460CF130095D
:101F800065460FCD4D4520606160A260E360AC46C0
:101F900004F11004F4D1DFF81CA12A88AB78228068
:101FA00006F2DC59A3700AF1200C4C4655460FCDC1
:101FB000654520606160A260E360AA4604F11004F8
:101FC000F4D1BAE80700344D20606160A26007CD0B
:101FD000BAF80030A381314CC6F80A06C6F80E16CE
:101FE000C6F812260FCCC6F81706C6F81B16C6F898
:101FF0001F2607CC2D782488C6F82706C6F82B168E
:10200000C6F82F262149C6F823360EF1320202A85F
:10201000A6F8334686F816560CF016F948460FF027
:102020002FF802A948440EF0B5FDDFF88CC0A0EBF4
:10203000090A04460CF1300E65460FCD7545206047
:102040006160A260E360AC4604F11004F4D1AB78A7
:102050002A88A370228049460AF1330230460EF0E6
:1020600051FC0AF13200414630440EF0A7FF3046E1
:102070003B460B4A42F62F41FEF718FF384607B0A1
:10208000BDE8F08F8424010898220108481C01084B
:10209000241C0108B42201087C190108E42101086C
:1020A000CD1B00082C2001084C22010874220108D5
:1020B000BC220108B42101080422010830B50C46F5
:1020C000ADF5177D014668460EF078FF2368144D84
:1020D0001B6820464BA998474BA902460C900DA8B7
:1020E0000EF010FC2C6874B169464FF495724BA841
:1020F0000EF008FC00234BA920681A460DF0AAFF39
:102100000DF5177D30BD042000F09EF80022044636
:102110004FF4957105200DF04DFF2C602060E3E732
:10212000E00E0020F0B583B0002942D0078E2F2F9B
:1021300006463CD83030034606F1800501E0AB424C
:1021400009D053F8044F002CF9D022888A42F6D1E6
:10215000204603B0F0BD132F02D811E0984208D0FA
:1021600050F8044F002CF9D02288002AF0D0984271
:10217000F6D1142111480CF065F9204603B0F0BDEA
:102180000220019100F060F8338E0D4D019901801D
:1021900006EB8302013350632A683386044601321A
:1021A00008482A600CF04EF9204603B0F0BD002428
:1021B000CEE705480C460CF045F9C9E72C23010889
:1021C000040000200C230108F0220108343070477D
:1021D000704700BF00F13003803053F8042F8AB1FC
:1021E00010B414888C4208D0834208D053F8042FCE
:1021F000002AF9D014888C42F6D1002313805DF8B0
:10220000044B70478342E8D1704700BF70B50D4C56
:1022100084B0002504F1A006D4E908032146CDE9E5
:102220000035CDE9025500234FF4007228340CF03C
:1022300005FCB442F0D1002004B0BDE870400CF0C1
:1022400023BD00BF080000200CF0A2B830B585B057
:1022500000240225234680220F490194CDE902443F
:1022600000950E480CF080FA00F072F94FF47A6095
:102270000DF058F8FEF76AFD0095CDE9024401948F
:1022800023468022064907480CF06EFA204605B026
:10229000BDE830400CF0F8BC98240108B5E3000814
:1022A000A82401080D22000808B500213C2000F0F8
:1022B000A3F801213C2000F07BF8FA200DF032F861
:1022C00000213C2000F074F8FA200DF02BF8F0E724
:1022D00030B585B002F09CFE02F07AFF002131207B
:1022E00000F08AF80021322000F086F80021332027
:1022F00000F082F800213420002400F07DF8002155
:10230000352000F079F802252146362000F074F8D7
:102310002346CDE9024401940095802209490A48E8
:102320000CF022FACDE90244CDE900542346802284
:10233000064907480CF018FA204605B0BDE83040C1
:102340000CF0A2BCB82401084D220008C0240108EA
:10235000A922000810B584B003F0C8FE4FF416504F
:102360000BF082FF002401222346009206490194CB
:102370004FF48062CDE9024404480CF0F5F90CF00A
:10238000BBFC204604B010BDC8240108D1220008BF
:102390004FF0140080F31188FEE700BF704700BFC4
:1023A000C0EBC000C30018460138FDD8704700BF1D
:1023B000C0F303139B0200F00F0203F180430120DE
:1023C00003F50033904080B201290CBF1883588375
:1023D000704700BF08B5C0F30312920200F00F016E
:1023E000012302F1804003FA01F189B200F50030C7
:1023F00003F042F908BD00BF2DE9F04301260411A6
:102400000F4687B00546314606FA04F003F0F2F9AC
:10241000002F53D0012F69D0BB1E022B02D907B069
:10242000BDE8F083314605F00F054FF4804003F01E
:10243000F9F904F00F04029B1FFA85F806A906FAC1
:1024400008F6A002334300F1804041F8103D4FF000
:10245000000900F500308DF80C908DF80F9003F016
:10246000BDF82946204603F05FF9032F04968DF846
:10247000149037D0022F60D0042F04BF10238DF8A2
:102480001530012304A88DF8163002F0D5FEB8F1FE
:10249000040FC4D8B8F1000F3DD106238DF80430E5
:1024A0000F23012201A88DF805308DF806308DF834
:1024B000072003F00BF907B0BDE8F08304F00F002C
:1024C000800200F1804005F00F05204B039300F5DA
:1024D000003006FA05F502A9029503F07FF807B06F
:1024E000BDE8F0830C238DF81530CAE704F00F0027
:1024F000800200F1804005F00F054FF4007300F5F5
:10250000003007FA05F502A9CDE9025303F066F899
:1025100007B0BDE8F083B8F1010F0AD0B8F1020F9F
:102520000FD0B8F1030F0CBF09230A238DF8043034
:10253000B6E707238DF80430B2E708238DF815308D
:102540009FE708238DF80430AAE700BF01020001CD
:102550000B4B1A6892B90B490B4830B40C680B4D01
:1025600021682D68006841F0807121602A6002684E
:1025700001210A430260196030BC7047704700BFF8
:10258000E40E0020B0000020A8000020AC000020D5
:10259000044A054B12681068C008A3FB00304008CD
:1025A000704700BFAC0000201986611800B583B0E9
:1025B00006460D460CF000FD02AC44F8040DB04791
:1025C000294620460CF030FFF9E700BF08B50EF0B1
:1025D000F5FC08BD00220262704700BF406AFFF7A9
:1025E0006DBD00BF08B54FF47A600CF09BFE03226E
:1025F000002101200DF0DEFC0A4A106020B100230A
:102600001A4619460DF026FD00212620FFF7F4FE9C
:1026100004210020FFF7F0FE00212620BDE808403D
:10262000FFF7C6BE180F002010B582B000240120AD
:10263000019402F039FE28B9019B0BB10BF084FF25
:1026400002B010BD2046FFF7C5FEF8B9FFF7A0FFA6
:10265000114B124A1B689FED127AC01A1060D2ED1E
:10266000007AF8EE677AF4EEC77AF1EE10FAC4BF9A
:1026700047F2AC1313600B4A00231068194601AAF5
:102680000DF058FE012002F01DFED5E7FFF780FF98
:10269000014B1860F6E700BF140F00201C0F00204C
:1026A0001A58E346180F00202DE9F0432DED028B58
:1026B00083000A3383B003F4FF6300AFADEB030D77
:1026C0006E46454C346005460CF076FC7860002D73
:1026D00078D0DFF81081DFF81091DFED408A9FEDB0
:1026E000408A002412E0D9ED007AF8EE677A67EEAE
:1026F000A87AF4EEC87AF1EE10FA54DD013DEDB29D
:102700002821381D0CF090FEA54232D94FF014005C
:1027100080F3118800212620FFF74AFE0220FFF7F0
:102720003FFE01212620FFF743FE0A20FFF738FE77
:1027300000212620FFF73CFE4FF0000080F31188B7
:102740000023D8F8000019461D220DF057FE00287E
:10275000C9D1F0EE087AB4B9002106EB8101013449
:10276000C1ED007AE4B22821381D0CF05DFEA542CF
:10277000CCD86D1006EB85050C372868BD46BDEC3E
:10278000028BBDE8F083234606EB840232ED017A2A
:10279000B4EEE77AF1EE10FA1946DED5013B82ED90
:1027A000017AF3D1D8E7B0EE087AF4EEC77AF1EE09
:1027B00010FA0ED4BFEE007AF4EE477AF1EE10FA7A
:1027C0009CD0C8E720460C37BD46BDEC028BBDE867
:1027D000F083F0EE477ABEE7000080BF7AC18C3C00
:1027E0000000FA43180F00201C0F002010B40160F5
:1027F000426083605DF8044B704700BF30B406EE62
:10280000102A114D90ED015AD5ED007A0F4CD0ED04
:10281000005AD4ED006A07EE101A37EE467A90EDB2
:10282000026A84ED007A77EE277A77EE666AC5ED64
:10283000007A67EE857A30BCE5EE877AE6EE267A96
:10284000C3ED007A704700BF200F0020240F002046
:10285000F0B585B004466B460E223B21682000F09F
:1028600051FA9DF808709DF809009DF80A309DF80E
:102870000B209DF80C509FED3B4A9DF800609DF8A1
:102880000110DFED392A9FED393A40EA072000B206
:1028900007EE900A42EA03229DF80D30344812B246
:1028A000B8EEE77A43EA052307EE902A1BB2F8EE6A
:1028B000E75A07EE903AB8EEE76AC7EE044A9DF889
:1028C00002309DF803209DF8045042EA03229DF84F
:1028D000053041EA062143EA052309B212B21BB2D0
:1028E00085EE845AC6EE045A06EE901A07EE102AB8
:1028F00007EE903A1F4A204B92ED004A93ED006A92
:10290000D0ED003A1D491E4A1E4B91ED001AD2ED42
:10291000001A93ED002AF8EEE66AB8EEC77AF8EEF0
:10292000E77A66EEA26A27EE227A67EEA27AD6EE00
:10293000833A97EE034A97EE836A74EEC16A35EEE6
:10294000617A75EEC27AC4ED003A84ED014A84EDF5
:10295000026AC4ED036A84ED047AC4ED057A05B019
:10296000F0BD00BF00008342C3F51C4100000039E8
:10297000280F0020300F0020380F00202C0F0020DF
:10298000340F00203C0F00202DE9F0472DED0A8B7D
:1029900017218AB0162000F0F9F800226B21682078
:1029A00000F048F901221B21682000F043F90122C0
:1029B0001C21682000F03EF96848DFED699ADFF8D5
:1029C000C0A1DFF8C091DFF8C081664F664E674D49
:1029D0009FED679ADFED678A9FED678A0BF032FD06
:1029E000C8200CF09FFC04A8FFF732FFB0EE69AAE4
:1029F000F0EE69AAB0EE69BAF0EE69BAB0EE69CA53
:102A00000A246B460E223B21682000F07BF99DF8DA
:102A10000AC09DF80B209DF808E09DF80C009DF879
:102A200009109DF80D30D9ED002AD8ED004A9AED35
:102A3000005A97ED003AD6ED003A95ED004A42EA89
:102A40000C2212B207EE102A41EA0E2143EA0023BB
:102A500009B21BB2F8EEC75A07EE901A07EE103A09
:102A6000F8EEE77AB8EEC76A87EE882A9DF800008C
:102A70009DF802E09DF803109DF804C09DF8052024
:102A80009DF8013041EA0E2142EA0C2243EA00237C
:102A900009B212B21BB2C5EE881A6420C6EE085AFB
:102AA00006EE901A07EE102A07EE903AF8EEE66A64
:102AB000B8EEC77AF8EEE77A66EE896A27EE097A09
:102AC00067EE897AD6EEA82AD7EE284A97EEA85A5A
:102AD00032EE433A71EEE33A35EEC44ACDED052AC3
:102AE000CDED064A8DED073A7AEE83AACDED083A90
:102AF0003AEE23AA8DED094A79EE849A7BEEA2BACA
:102B00003BEE24BA8DED045A3CEE05CA0CF00AFCEB
:102B1000013C7FF476AFF2EE047ACCEE274A1748F8
:102B20008BEEA75ACBEE275A8AEEA76ACAEE276A1F
:102B300089EEA77ACAED004A89ED005AC8ED005A1D
:102B400087ED006AC6ED006A85ED007A0BF07AFC2D
:102B50000AB0BDEC0A8BBDE8F08700BFD4240108A1
:102B6000000000002C0F0020340F00203C0F00203C
:102B7000C3F51C410000003900008342EC24010829
:102B8000280F0020300F0020380F00202DE9F041E1
:102B9000054686B00C464FF40010012102F036FEC7
:102BA00001210E4605F00F0804F00F07022002F085
:102BB00021FE06FA07F206FA08F313436946184A9B
:102BC00018480093019202F009FD2809800200F1E3
:102BD0008040414600F50030042202F057FD2009F4
:102BE000800200F18040104C104D394600F5003055
:102BF000042202F04BFD0E4B029300224FF480435F
:102C0000204602A9CDE90352ADF8143002F012FCBF
:102C10003146204602F078FC06B0BDE8F08100BFE6
:102C20000202010100040240005400400000FFBF06
:102C3000A086010040002DE9F8432E4D5FFA80F98F
:102C40008846174643F2010401E0013C29D04FF4C5
:102C50000031284602F0A6FC0028F6D12548264E71
:102C60000121054643F2010402F05AFC01E0013C57
:102C700017D03146284602F089FC0028F7D0494693
:102C800000221C481D4E1B4D02F062FC43F2010461
:102C900001E0013C05D03146284602F077FC0028CF
:102CA000F7D01448164E4146054643F2010402F09F
:102CB00067FC01E0013C05D03146284602F066FC85
:102CC0000028F7D00B480E4E3946054643F2010462
:102CD00002F056FC01E0013C05D03146284602F0E6
:102CE00055FC0028F7D001210248BDE8F84302F066
:102CF00023BC00BF00540040010003008200070015
:102D000084000700002A00F0C0802DE9F0479846B3
:102D1000002B00F0BD8040000F469146604EC5B2CA
:102D200043F2010401E0013C2BD04FF40031304666
:102D300002F038FC0028F6D15948DFF86CA10121D7
:102D4000064643F2010402F0EBFB01E0013C18D01F
:102D50005146304602F01AFC0028F7D000222946DE
:102D60004F48DFF858A14E4E02F0F2FB43F2010447
:102D700001E0013C05D05146304602F007FC002836
:102D8000F7D0474839460646464F02F0F9FB43F272
:102D9000010401E0013C05D03946304602F0F6FB63
:102DA0000028F7D03E480121064643F2010402F014
:102DB000C3FB01E0013C29D04FF40031304602F062
:102DC000F1FB0028F6D13648374F0121064643F281
:102DD000010402F0A5FB01E0013C17D03946304662
:102DE00002F0D4FB0028F7D0294601222C482F4EB0
:102DF0002B4D02F0ADFB43F2010401E0013C05D094
:102E00003146284602F0C2FB0028F7D0B9F101098B
:102E10001DD0234D264E00270121284602F0A4FB99
:102E200008EB070A43F2010401E0013C2BD03146D4
:102E3000284602F0ABFB0028F7D0284602F0A2FBA0
:102E40000137BFB24F458AF80000E5DBB8441448AB
:102E5000174E0021054602F087FB0121284602F0AB
:102E60006BFB43F2010401E0013C16D031462846D9
:102E700002F08CFB0028F7D0094802F083FB88F8A9
:102E80000000BDE8F0872046DAE70A480BF0DABA1E
:102E90000948BDE8F0470BF0D5BA2046EFE700BF80
:102EA00000540040840007000100030002000300FA
:102EB00040000300042501083825010882000700AE
:102EC000F8B50D682E1D042E0C46074601F10303CC
:102ED00005D918462A4604310DF0AEFD03462C44B0
:102EE0000022E27030467B60F8BD00BF00487047AA
:102EF000A4250108004870478025010870B50646E2
:102F000040680C460EF0BCF8054620462A4640F8BC
:102F1000045B71680DF0F6FC281D70BDF8B50B78E8
:102F200043604A7843EA022343608A7843EA0243D3
:102F30004360CA7843EA026343600B7983604A794D
:102F400043EA022383608A7943EA02438360CA79B1
:102F500043EA026383600B7AC3604A7A43EA02233E
:102F6000C3608A7A43EA0243C360CA7A43EA0263CF
:102F7000C360CE6806F11007102F0C46054601F11C
:102F80000F0305D91846324610310DF055FD0346A2
:102F900034440022E27338462B61F8BD0048704784
:102FA0007C260108004870475826010800487047F1
:102FB000442601080048704720260108D0ED0A7A0F
:102FC0009FED037A034B67EE877AC3ED007A704773
:102FD0000000FA43400F00200048704744260108D3
:102FE00000487047202601083D4B9FED3E7AD3ED07
:102FF000007A3D4B10B5F4EEC77AF1EE10FAD8BF67
:103000009FED3A7A3A4C186822682DED028BD8BFB2
:1030100087EE878A82B002AB4FF0000143F8041DAF
:10302000C8BFB3EE098A18EE101AFFF7E7FBDDED13
:10303000017AD4ED006ABDEEE77A17EE103A002B64
:10304000B8BF5B421E2B08DDF5EEC07AF1EE10FA38
:103050004CBFFBEE0E7AF3EE0E7A37EEE66ADFED4A
:10306000254ABDEEC67AF2EE045A17EE103A002B4E
:10307000B8BF5B4207EE103AB8EEC77A87EE245A23
:10308000B4EEE55AF1EE10FA0CD4B5EEC06ADFEDFD
:103090001A7A9FED1A7AF1EE10FA58BFF0EE477ADD
:1030A00076EEA77A9FED167AC4ED007A67EE877AFE
:1030B00066EE876A28EE078AFDEEE77ABDEEE67ACD
:1030C00017EE902AFDEEC87A0E4817EE103A17EE6A
:1030D000901A0BF0B7F902B0BDEC028B10BD00BF27
:1030E000400F002000003442480F00206666E63F93
:1030F000440F00200AD7233DCCCCCCBECCCCCC3E58
:1031000000007A4414260108436870B50B704368C8
:103110001B0A4B70C3888B70C379CB7083680B71AB
:1031200083681B0A4B7143898B71C37ACB71C36867
:103130000B72C3681B0A4B72C3898B72C37BCB7241
:10314000054600690C460DF09BFF0646E0602969C4
:1031500004F1100032460DF0D5FB06F1100070BDF1
:10316000836870B50B7083681B0A4B7043898B7042
:10317000C37ACB70C3680B71C3681B0A4B71C389D8
:103180008B71C37BCB7103690B7203691B0A4B7292
:10319000438A8B72C37CCB72054640690C460DF0A6
:1031A0006FFFE06006466969024604F110000DF009
:1031B000A9FBA1192B7E0B74EB694B74180A1A0C2E
:1031C0001B0E8874CA740B752B6A4B75180A1A0C7F
:1031D0001B0E8875CA750B766B6A4B76180A1A0C2B
:1031E0001B0E8876CA760B77AB6A4B771C0A1A0CD3
:1031F0001B0E8C77CA7781F8203006F1210070BD54
:103200002DE9F0410B7883604A7843EA022383601A
:103210008A7843EA02438360CA7843EA02638360A0
:103220000B79C3604A7943EA0223C3608A7943EA8F
:103230000243C360CA7943EA0263C3600B7A036145
:103240004A7A43EA022303618A7A43EA024303612A
:10325000CA7A43EA02630361CE6806F11007102FB1
:103260000D46044601F10F0804D94046324610319C
:103270000DF0E2FBAB190022DA73C4F81480EA5DAA
:103280002276DA7C9D7C587C197D120442EA052264
:10329000024342EA0162E261DA7D9D7D587D197E3A
:1032A000120442EA0522024342EA01622262DA7E05
:1032B0009D7E587E197F120442EA0522024342EAAB
:1032C00001626262DA7F9D7F587F93F820101304B9
:1032D00043EA0523034343EA016306F12100A362A5
:1032E000BDE8F081F8B50B7843614A7843EA0223E0
:1032F00043618A7843EA02434361CA7843EA02633E
:1033000043610B7983614A7943EA022383618A79B5
:1033100043EA02438361CA7943EA026383610B7A19
:10332000C3614A7A43EA0223C3618A7A43EA0243C9
:10333000C361CA7A43EA0263C361CE6806F110072B
:10334000102F0D46044601F10F0305D918463246E9
:1033500010310DF071FB0346AA190021D1732362CD
:10336000EB5D84F82430D37C957C507C117D1B046C
:1033700043EA0523034343EA0163A362D37D957DBA
:10338000507D117E1B0443EA0523034343EA016396
:10339000E362D37E957E507E117F1B0443EA0523B2
:1033A000034343EA01632363D37F907F517F92F805
:1033B00020201B0443EA00230B4343EA02636363B8
:1033C000F8BD00BF2DE9F0418CB00268C5680392DA
:1033D0004268049200238268059205F110072A4A88
:1033E000089309930A930B93284B01920293284A5E
:1033F00006920023102F06460C468DF81C3000F173
:103400000F0805D940462A4606F110010DF014FBBD
:1034100072190021D173D37CF75D967CD57D8DF830
:103420001C701B0443EA0623567C977DD07ED17F17
:10343000CDF8188033432D04167DA46B45EA07258B
:10344000977E43EA06630004567D089340EA07200E
:10345000977F537F35430904167E41EA0721577E43
:103460000B4345EA066192F82050167F09913843D4
:1034700040EA066243EA05630A920B9301A8A0475B
:103480000CB0BDE8F08100BFD4250108BC250108BF
:10349000342501082DE9F0412020FEF7D5FE214911
:1034A000214E8046FFF792F84020FEF7CDFE1F4ADE
:1034B0001F4917681F4A02600B681F4AC2601F4AF3
:1034C0000261044601331E4A02620B60002200259D
:1034D0001C494561C4E9065584F82450A262E262A1
:1034E00022636263E663A160404647F82340164AC0
:1034F000164BFDF787FC22461549A663FEF73EF9F9
:103500000C20FEF7A1FE134B1349144A0446FFF7A3
:103510006DF9134B13481C602821BDE8F041FFF7FB
:1035200045B800BFF8250108BD2F0008B8000020ED
:10353000B4000020EC250108D4250108BC250108B1
:103540003425010808260108202601084426010820
:10355000C53300088FC2F53D6666E63E7B14AE3D7E
:10356000480F0020E92F0008004870474027010855
:10357000004870471C270108004870478027010851
:10358000004870475C270108004870470C27010875
:1035900000487047E826010870B5B4B06846FFF7E8
:1035A00057F9214D214A2249069200230022079112
:1035B000204C214921480D93CDE90A250E930F9304
:1035C00010931193129313931493159316931793C7
:1035D000189319931E931F9320932193229323935F
:1035E0002493259326932B93CDE908220C941A91CA
:1035F00027912C93009A019E029D2D932E932F9339
:103600003093319332933393039C2892059B049A11
:103610000068299606A92A951B941C921D93FEF713
:10362000DDFF34B070BD00BF34250108C426010899
:10363000BC25010894260108AC2601084C0F002087
:10364000D0ED017A17EE903AC3F3C75270B4002A56
:1036500068D002F56072140164B21209C3F3C34565
:10366000F5EEC07A2C43F1EE10FA4FF000054FEA68
:1036700043168C7148BF62F07F02DC10DB124B7185
:10368000CA710D704D708D70CE700C71D0ED027AD4
:1036900017EE903AC3F3C752002A47D002F5607282
:1036A000140164B21209C3F3C345F5EEC07A2C438A
:1036B000F1EE10FA4FF000054FEA43168C7348BF45
:1036C00062F07F02DC10DB124B73CA730D724D7215
:1036D0008D72CE720C73D0ED037A17EE903AC3F36D
:1036E000C7520AB302F56072100140B21209C3F367
:1036F000C344F5EEC07A2043F1EE10FA4FF0000417
:103700004FEA4315887548BF62F07F02D810DB127C
:103710000C744C748C74CD7408754B751820CA7574
:1037200070BC7047144699E71046E0E71446BAE7C4
:10373000D0ED017A17EE903AC3F3C75270B4002A65
:1037400000F08E8002F56072140164B21209C3F3B6
:10375000C345F5EEC07A2C43F1EE10FA4FF00005A8
:103760004FEA43168C7148BF62F07F02DC10DB1217
:103770004B71CA710D704D708D70CE700C71D0EDA3
:10378000027A17EE903AC3F3C752002A6ED002F5C0
:103790006072140164B21209C3F3C345F5EEC07A36
:1037A0002C43F1EE10FA4FF000054FEA43168C73EC
:1037B00048BF62F07F02DC10DB124B73CA730D72DC
:1037C0004D728D72CE720C73D0ED037A17EE903A73
:1037D000C3F3C752002A47D002F56072140164B2E5
:1037E0001209C3F3C345F5EEC07A2C43F1EE10FA8B
:1037F0004FF000054FEA43168C7548BF62F07F0218
:10380000DC10DB124B75CA750D744D748D74CE745B
:103810000C75D0ED047A17EE903AC3F3C7520AB391
:1038200002F56072100140B21209C3F3C344F5EE11
:10383000C07A2043F1EE10FA4FF000044FEA43152E
:10384000887748BF62F07F02D810DB120C764C7686
:103850008C76CD7608774B772020CA7770BC70477E
:10386000144674E71046E0E71446BAE7144693E7B7
:10387000F8B583680B7083681B0A4B7043898B70A3
:10388000C37ACB70C3680B71C3681B0A4B71C389C1
:103890008B71C37BCB7103690B7203691B0A4B727B
:1038A000438A8B72C37CCB72054640690C460DF08F
:1038B000E7FBE06002460646696904F110000DF07E
:1038C00021F8D5ED077A17EE902A06F11000C2F321
:1038D000C7512318002900F0628601F560710E01BE
:1038E00076B20909C2F3C347F5EEC07A3E43F1EE62
:1038F00010FA4FF0000727544FEA421C9E7148BF50
:1039000061F07F01D610D2125A71D9715F709F7029
:1039100083F803C01E71D5ED087A17EE902AC2F322
:10392000C751002900F0918601F560710E0176B251
:103930000909C2F3C347F5EEC07A3E43F1EE10FA2F
:103940004FF000074FEA421C9E7348BF61F07F01B1
:10395000D610D2125A73D9731F725F729F7283F896
:103960000BC01E73D5ED097A17EE902AC2F3C7512A
:10397000002900F0678601F560710E0176B2090931
:10398000C2F3C347F5EEC07A3E43F1EE10FA4FF0B2
:1039900000074FEA421C9E7548BF61F07F01D610B8
:1039A000D2125A75D9751F745F749F7483F813C04F
:1039B0001E75D5ED0A7A17EE902AC2F3C751002979
:1039C00000F03D8601F560710E0176B20909C2F37F
:1039D000C347F5EEC07A3E43F1EE10FA4FF0000710
:1039E0004FEA421C9E7748BF61F07F01D610D21289
:1039F00083F81BC05A77D9771F765F769F761E773C
:103A0000D5ED0B7A17EE903A00F1200CC3F3C751B5
:103A100004EB0C02002900F00F8601F560710E0125
:103A200076B20909C3F3C347F5EEC07A3E43F1EE1F
:103A300010FA4FF0000704F80C704FEA431E4FEAEB
:103A4000E30C48BF61F07F01DB1282F804C05371C0
:103A5000D17196715770977082F803E0D5ED0C7AAA
:103A600017EE902A00F1280CC2F3C75104EB0C03A7
:103A7000002900F0DE8501F560710E0176B20909BA
:103A8000C2F3C347F5EEC07A3E43F1EE10FA4FF0B1
:103A9000000704F80C704FEA421E4FEAE20C48BFE0
:103AA00061F07F01D21283F804C05A71D9719E71FE
:103AB0005F709F7083F803E0D5ED0D7A17EE902AC2
:103AC00000F1300CC2F3C75104EB0C03002900F0E5
:103AD000AD8501F560710E0176B20909C2F3C347E5
:103AE000F5EEC07A3E43F1EE10FA4FF0000704F80D
:103AF0000C704FEA421E4FEAE20C48BF61F07F01B2
:103B0000D21283F804C05A71D9719E715F709F7090
:103B100083F803E0D5ED0E7A17EE902A00F1380C09
:103B2000C2F3C75104EB0C03002900F07C8501F5BA
:103B300060710E0176B20909C2F3C347F5EEC07A8F
:103B40003E43F1EE10FA4FF0000704F80C704FEA14
:103B5000421E4FEAE20C48BF61F07F01D21283F8A7
:103B600004C05A71D9719E715F709F7083F803E031
:103B7000D5ED0F7A17EE902A00F1400CC2F3C75131
:103B800004EB0C03002900F04B8501F560710E0178
:103B900076B20909C2F3C347F5EEC07A3E43F1EEAF
:103BA00010FA4FF0000704F80C704FEA421E4FEA7B
:103BB000E20C48BF61F07F01D21283F804C05A7151
:103BC000D9719E715F709F7083F803E0D5ED107A14
:103BD00017EE902A00F1480CC2F3C75104EB0C0316
:103BE000002900F01A8501F560710E0176B209090D
:103BF000C2F3C347F5EEC07A3E43F1EE10FA4FF040
:103C0000000704F80C704FEA421E4FEAE20C48BF6E
:103C100061F07F01D21283F804C05A71D9719E718C
:103C20005F709F7083F803E0D5ED117A17EE902A4C
:103C300000F1500CC2F3C75104EB0C03002900F053
:103C4000E98401F560710E0176B20909C2F3C34738
:103C5000F5EEC07A3E43F1EE10FA4FF0000704F89B
:103C60000C704FEA421E4FEAE20C48BF61F07F0140
:103C7000D21283F804C05A71D9719E715F709F701F
:103C800083F803E0D5ED127A17EE902A00F1580C74
:103C9000C2F3C75104EB0C03002900F0B88401F50E
:103CA00060710E0176B20909C2F3C347F5EEC07A1E
:103CB0003E43F1EE10FA4FF0000704F80C704FEAA3
:103CC000421E4FEAE20C48BF61F07F01D21283F836
:103CD00004C05A71D9719E715F709F7083F803E0C0
:103CE000D5ED137A17EE902A00F1600CC2F3C7519C
:103CF00004EB0C03002900F0878401F560710E01CC
:103D000076B20909C2F3C347F5EEC07A3E43F1EE3D
:103D100010FA4FF0000704F80C704FEA421E4FEA09
:103D2000E20C48BF61F07F01D21283F804C05A71DF
:103D3000D9719E715F709F7083F803E0D5ED157A9D
:103D400017EE902A00F1680CC2F3C75104EB0C0384
:103D5000002900F0568401F560710E0176B2090960
:103D6000C2F3C347F5EEC07A3E43F1EE10FA4FF0CE
:103D7000000704F80C704FEA421E4FEAE20C48BFFD
:103D800061F07F01D2125A71D9719E715F709F707C
:103D900083F803E083F804C0D5ED167A17EE902A75
:103DA000C2F3C751002900F0298401F560710E01AA
:103DB00076B20909C2F3C347F5EEC07A3E43F1EE8D
:103DC00010FA4FF000074FEA421C9E7348BF61F0A3
:103DD0007F01D610D2125A73D9731F725F729F720D
:103DE00083F80BC01E73D5ED177A17EE902AC2F335
:103DF000C751002900F0008401F560710E0176B210
:103E00000909C2F3C347F5EEC07A3E43F1EE10FA5A
:103E10004FF000074FEA421C9E7548BF61F07F01DA
:103E2000D610D21283F813C05A75D9751F745F74F7
:103E30009F741E75D5ED187A17EE903A00F1800C3C
:103E4000C3F3C75104EB0C02002900F0D38301F542
:103E500060710E0176B20909C3F3C347F5EEC07A6B
:103E60003E43F1EE10FA4FF0000704F80C704FEAF1
:103E7000431E4FEAE30C48BF61F07F01DB1282F87A
:103E800004C05371D17196715770977082F803E036
:103E9000D5ED197A17EE902A00F1880CC2F3C751BC
:103EA00004EB0C03002900F0A38301F560710E01FF
:103EB00076B20909C2F3C347F5EEC07A3E43F1EE8C
:103EC00010FA4FF0000704F80C704FEA421E4FEA58
:103ED000E20C48BF61F07F01D21283F804C05A712E
:103EE000D9719E715F709F7083F803E0D5ED1A7AE7
:103EF00017EE902A00F1900CC2F3C75104EB0C03AB
:103F0000002900F0738301F560710E0176B2090992
:103F1000C2F3C347F5EEC07A3E43F1EE10FA4FF01C
:103F2000000704F80C704FEA421E4FEAE20C48BF4B
:103F300061F07F01D21283F804C05A71D9719E7169
:103F40005F709F7083F803E0D5ED1B7A17EE902A1F
:103F500000F1980CC2F3C75104EB0C03002900F0E8
:103F6000438301F560710E0176B20909C2F3C347BC
:103F7000F5EEC07A3E43F1EE10FA4FF0000704F878
:103F80000C704FEA421E4FEAE20C48BF61F07F011D
:103F9000D21283F804C05A71D9719E715F709F70FC
:103FA00083F803E0D5ED1C7A17EE902A00F1A00CFF
:103FB000C2F3C75104EB0C03002900F0138301F591
:103FC00060710E0176B20909C2F3C347F5EEC07AFB
:103FD0003E43F1EE10FA4FF0000704F80C704FEA80
:103FE000421E4FEAE20C48BF61F07F01D21283F813
:103FF00004C05A71D9719E715F709F7083F803E09D
:10400000D5ED1D7A17EE902A00F1A80CC2F3C75126
:1040100004EB0C03002900F0E38201F560710E014E
:1040200076B20909C2F3C347F5EEC07A3E43F1EE1A
:1040300010FA4FF0000704F80C704FEA421E4FEAE6
:10404000E20C48BF61F07F01D21283F804C05A71BC
:10405000D9719E715F709F7083F803E0D5ED1E7A71
:1040600017EE902A00F1B00CC2F3C75104EB0C0319
:10407000002900F0B38201F560710E0176B20909E2
:10408000C2F3C347F5EEC07A3E43F1EE10FA4FF0AB
:10409000000704F80C704FEA421E4FEAE20C48BFDA
:1040A00061F07F01D21283F804C05A71D9719E71F8
:1040B0005F709F7083F803E0D5ED1F7A17EE902AAA
:1040C00000F1B80CC2F3C75104EB0C03002900F057
:1040D000838201F560710E0176B20909C2F3C3470C
:1040E000F5EEC07A3E43F1EE10FA4FF0000704F807
:1040F0000C704FEA421E4FEAE20C48BF61F07F01AC
:10410000D21283F804C05A71D9719E715F709F708A
:1041100083F803E0D5ED207A17EE902A00F1C00C69
:10412000C2F3C75104EB0C03002900F0538201F5E0
:1041300060710E0176B20909C2F3C347F5EEC07A89
:104140003E43F1EE10FA4FF0000704F80C704FEA0E
:10415000421E4FEAE20C48BF61F07F01D21283F8A1
:1041600004C05A71D9719E715F709F7083F803E02B
:10417000D5ED227A17EE902A00F1C80CC2F3C75190
:1041800004EB0C03002900F0238201F560710E019D
:1041900076B20909C2F3C347F5EEC07A3E43F1EEA9
:1041A00010FA4FF0000704F80C704FEA421E4FEA75
:1041B000E20C48BF61F07F01D2125A71D9719E7131
:1041C0005F709F7083F803E083F804C0D5ED237A15
:1041D00017EE902AC2F3C751002900F0F78101F5CC
:1041E00060710E0176B20909C2F3C347F5EEC07AD9
:1041F0003E43F1EE10FA4FF000074FEA421C9E7367
:1042000048BF61F07F01D610D2125A73D9731F7262
:104210005F729F7283F80BC01E73D5ED247A17EE80
:10422000902AC2F3C751002900F0CE8101F56071D8
:104230000E0176B20909C2F3C347F5EEC07A3E43D8
:10424000F1EE10FA4FF000074FEA421C9E7548BF8E
:1042500061F07F01D610D21283F813C05A75D97558
:104260001F745F749F741E75D5ED257A17EE903A12
:1042700000F1E00CC3F3C75104EB0C02002900F07D
:10428000A18101F560710E0176B20909C3F3C3473C
:10429000F5EEC07A3E43F1EE10FA4FF0000704F855
:1042A0000C704FEA431E4FEAE30C48BF61F07F01F8
:1042B000DB1282F804C05371D171967157709770F8
:1042C00082F803E0D5ED267A17EE902A00F1E80C8B
:1042D000C2F3C75104EB0C03002900F0718101F512
:1042E00060710E0176B20909C2F3C347F5EEC07AD8
:1042F0003E43F1EE10FA4FF0000704F80C704FEA5D
:10430000421E4FEAE20C48BF61F07F01D21283F8EF
:1043100004C05A71D9719E715F709F7083F803E079
:10432000D5ED277A17EE902A00F1F00CC2F3C751B1
:1043300004EB0C03002900F0418101F560710E01CE
:1043400076B20909C2F3C347F5EEC07A3E43F1EEF7
:1043500010FA4FF0000704F80C704FEA421E4FEAC3
:10436000E20C48BF61F07F01D21283F804C05A7199
:10437000D9719E715F709F7083F803E0D5ED287A44
:1043800017EE902A00F1F80CC2F3C75104EB0C03AE
:10439000002900F0118101F560710E0176B2090962
:1043A000C2F3C347F5EEC07A3E43F1EE10FA4FF088
:1043B000000704F80C704FEA421E4FEAE20C48BFB7
:1043C00061F07F01D21283F804C05A71D9719E71D5
:1043D0005F709F7083F803E0D5ED297A17EE902A7D
:1043E00000F5807CC2F3C75104EB0C03002900F0F8
:1043F000E18001F560710E0176B20909C2F3C3478D
:10440000F5EEC07A3E43F1EE10FA4FF0000704F8E3
:104410000C704FEA421E4FEAE20C48BF61F07F0188
:10442000D21283F804C05A71D9719E715F709F7067
:1044300083F803E0D5ED2A7A17EE902A00F5847C04
:10444000C2F3C75104EB0C03002900F0B18001F561
:1044500060710E0176B20909C2F3C347F5EEC07A66
:104460003E43F1EE10FA4FF0000704F80C704FEAEB
:10447000421E4FEAE20C48BF61F07F01D21283F87E
:1044800004C05A71D9719E715F709F7083F803E008
:10449000D5ED2B7A17EE902A00F5887CC2F3C75130
:1044A00004EB0C03002900F0818001F560710E011E
:1044B00076B20909C2F3C347F5EEC07A3E43F1EE86
:1044C00010FA4FF0000704F80C704FEA421E4FEA52
:1044D000E20C48BF61F07F01D21283F804C05A7128
:1044E000D9719E715F709F7083F803E0D5ED2C7ACF
:1044F00017EE902A00F58C7CC2F3C75104EB0C0335
:10450000002951D001F560710E0176B20909C2F39C
:10451000C347F5EEC07A3E43F1EE10FA4FF00007C4
:1045200004F80C704FEA421E4FEAE20C48BF61F0FB
:104530007F01D2125F709F705A71D9719E7183F89A
:1045400003E083F804C0D5ED2D7A17EE902A00F52C
:104550009077C2F3C751E31921B301F560710D01E2
:104560006DB20909C2F3C346F5EEC07A3543F1EEE8
:1045700010FA4FF00006E6554FEA421C4FEAE204FB
:1045800048BF61F07F01D2129D715E709E7083F80A
:1045900003C01C715A71D97100F59470F8BD0E46B4
:1045A000FFF7A0B90D46DDE70E46B0E70E4681E7FE
:1045B0000E4651E70E4621E70E46F1E60E46C1E6ED
:1045C0000E4691E60E4661E60E4634E60E460BE6D2
:1045D0000E46DFE50E46AFE50E467FE50E464FE59B
:1045E0000E461FE50E46EFE40E46BFE40E468FE48E
:1045F0000E465FE40E462FE40E4602E40E46FFF739
:10460000D9BB0E46FFF7ACBB0E46FFF77BBB0E4691
:10461000FFF74ABB0E46FFF719BB0E46FFF7E8BA95
:104620000E46FFF7B7BA0E46FFF786BA0E46FFF7FB
:1046300055BA0E46FFF724BA0E46FFF7F3B90E46F9
:10464000FFF7C5B90E46FFF79BB90E46FFF771B9E4
:10465000CB785B0930B443600A7943EAC203436014
:104660004A7943EAC22343608A79D20402F4F00211
:1046700013434360CA798D79140104F4FE6454EA4B
:10468000151405D0A4F5607443EAC4534360CA7995
:10469000120602F0004213434360CB7A5B09836049
:1046A0000A7B43EAC20383604A7B43EAC2238360F6
:1046B0008A7BD20402F4F00213438360CA7B8D7BB1
:1046C000140104F4FE6454EA151405D0A4F56074D2
:1046D00043EAC4538360CA7B120602F000421343CC
:1046E0008360CB7C5B09C3600A7D43EAC203C3607D
:1046F0004A7D43EAC223C3608A7DD20402F4F002F9
:104700001343C360CA7D8D7D140104F4FE6454EA32
:10471000151405D0A4F5607443EAC453C360CA7D80
:10472000120602F000421343C36030BC18207047E9
:10473000CB785B0930B443600A7943EAC203436033
:104740004A7943EAC22343608A79D20402F4F00230
:1047500013434360CA798D79140104F4FE6454EA6A
:10476000151405D0A4F5607443EAC4534360CA79B4
:10477000120602F0004213434360CB7A5B09836068
:104780000A7B43EAC20383604A7B43EAC223836015
:104790008A7BD20402F4F00213438360CA7B8D7BD0
:1047A000140104F4FE6454EA151405D0A4F56074F1
:1047B00043EAC4538360CA7B120602F000421343EB
:1047C0008360CB7C5B09C3600A7D43EAC203C3609C
:1047D0004A7D43EAC223C3608A7DD20402F4F00218
:1047E0001343C360CA7D8D7D140104F4FE6454EA52
:1047F000151405D0A4F5607443EAC453C360CA7DA0
:10480000120602F000421343C360CB7E5B090361D2
:104810000A7F43EAC20303614A7F43EAC22303617A
:104820008A7FD20402F4F00213430361CA7F8D7FB2
:10483000140104F4FE6454EA151405D0A4F5607460
:1048400043EAC4530361CA7F120602F000421343D5
:10485000036130BC202070472DE9F8430B7883605A
:104860004A7843EA022383608A7843EA02438360FA
:10487000CA7843EA026383600B79C3604A7943EAEA
:104880000223C3608A7943EA0243C360CA7943EAD8
:104890000263C3600B7A03614A7A43EA022303612D
:1048A0008A7A43EA02430361CA7A43EA02630361F4
:1048B000CF6807F11004102C0E46054601F10F08D1
:1048C00004D940463A4610310CF0B6F8F2193319C3
:1048D0000021D173C5F81480D9784909E9611879A4
:1048E00041EAC001E961587941EAC021E96198795A
:1048F000C00400F4F0000143E961D87993F806C0E0
:10490000070107F4FE6757EA1C1705D0A7F5607783
:1049100041EAC751E961D879000600F0004001433F
:10492000E961D97A49092962187B41EAC001296203
:10493000587B41EAC0212962987BC00400F4F00052
:1049400001432962D87B93F80EC0070107F4FE6784
:1049500057EA1C1705D0A7F5607741EAC7512962CD
:10496000D87B000600F0004001432962D97C490948
:104970006962187D41EAC0016962587D41EAC0213F
:104980006962987DC00400F4F00001436962D87D3B
:1049900093F816C0070107F4FE6757EA1C1705D005
:1049A000A7F5607741EAC7516962D87D000600F03B
:1049B000004001436962D97E4909A962187F41EA32
:1049C000C001A962587F41EAC021A962987FC00452
:1049D00000F4F0000143A962D87F93F81EC00701DC
:1049E00007F4FE6757EA1C1705D0A7F5607741EA80
:1049F000C751A962D87F000600F00040AC460143D1
:104A00004CF8281F05F14C0E1146174697F8333025
:104A10005B094CF8043F97F8340043EAC003CCF834
:104A2000003097F8350043EAC020CCF8000097F832
:104A30003630DB0403F4F0030343CCF8003097F87E
:104A4000370097F836904FEA0068000100F4FE60E6
:104A500050EA191008F00048A0F5607048EA030811
:104A600043EAC05000F08C81CCF8000097F8373052
:104A70001B0603F000431843E645CCF8000007F19D
:104A80000807C3D104F168033344D8784009686546
:104A90001F7940EAC70068655F7940EAC72068650A
:104AA0009F79FF0407F4F00738436865DF7993F8CE
:104AB00006E04FEA071C0CF4FE6C5CEA1E1C05D0F5
:104AC000ACF5607C40EACC506865DF793F0607F0C2
:104AD000004738436865D87A4009A8651F7B40EADB
:104AE000C700A8655F7B40EAC720A8659F7BFF04DD
:104AF00007F4F0073843A865DF7B93F80EE04FEA30
:104B0000071C0CF4FE6C5CEA1E1C05D0ACF5607C46
:104B100040EACC50A865DF7B3F0607F000473843EA
:104B2000A865D87C4009E8651F7D40EAC700E865B4
:104B30005F7D40EAC720E8659F7DFF0407F4F0072A
:104B40003843E865DF7D93F816E04FEA071C0CF464
:104B5000FE6C5CEA1E1C05D0ACF5607C40EACC50D3
:104B6000E865DF7D3F0607F000432F46184347F80E
:104B70005C0F05F1800C104690F893305B0947F804
:104B8000043F90F8942043EAC2033B6090F89520DC
:104B900043EAC2223A6090F89630DB0403F4F00353
:104BA00013433B6090F8972090F896804FEA026E8E
:104BB000120102F4FE6252EA18120EF0004EA2F543
:104BC00060724EEA030E43EAC25200F0D1803A60AE
:104BD00090F897301B0603F000431A4367453A608C
:104BE00000F10800C8D104F1C8031E44F3785B0942
:104BF000C5F88830327943EAC203C5F88830727943
:104C000043EAC223C5F88830B279D20402F4F00234
:104C10001343C5F88830F279B779100100F4FE60CB
:104C200050EA171006D0A0F5607043EAC053C5F8EB
:104C30008830F279120602F000421343C5F888303A
:104C4000F37A5B09C5F88C30327B43EAC203C5F8BE
:104C50008C30727B43EAC223C5F88C30B27BD2041D
:104C600002F4F0021343C5F88C30F27BB77B1001DD
:104C700000F4FE6050EA171006D0A0F5607043EA19
:104C8000C053C5F88C30F27B120602F00042134389
:104C9000C5F88C30F37C5B09C5F89030327D43EA6F
:104CA000C203C5F89030727D43EAC223C5F8903044
:104CB000B27DD20402F4F0021343C5F89030F27DC5
:104CC000B77D100100F4FE6050EA171006D0A0F581
:104CD000607043EAC053C5F89030F27D1206284652
:104CE00002F00042134340F8903FB43591F8F3309E
:104CF0005B0940F8043F91F8F42043EAC2030360E3
:104D000091F8F52043EAC222026091F8F630DB0404
:104D100003F4F0031343036091F8F72091F8F67061
:104D20001606120102F4FE6252EA171206F000465D
:104D3000A2F5607246EA030643EAC2530FD003604D
:104D400091F8F720120602F00042134385420360F7
:104D500001F10801CAD104F59470BDE8F8838542D9
:104D6000066001F10801C1D104F59470BDE8F88333
:104D70006745C7F800E000F108007FF4FDAE32E7B8
:104D8000E645CCF8008007F108077FF43FAE79E6EE
:104D900070B52020FDF758FA1049114D0646FDF771
:104DA00015FC2820FDF750FA0446FDF713FC0D49C9
:104DB0002B680D4A086820600133146030460B4AA6
:104DC0002B602662FCF704F86062FDF7DDFD6421CC
:104DD0000748BDE87040FDF7E9BB00BFD4260108D5
:104DE000100F0020E42601084C0F00200C270108BA
:104DF000993500080FB430B50B4C2368A5B073B1DA
:104E000029AB04AD1A4628990193284609F016FAF1
:104E1000064B2068039502A90293FDF7DFFB25B03E
:104E2000BDE8304004B07047500F002070250108E5
:104E300030B58DB000221748174D184C184908920C
:104E400000230B9209904FF080420520CDE90154D8
:104E5000CDE9033305938DF81C3006910A92FDF7D6
:104E600023FC9FED107A07EE900AC7EE877ABFEE1B
:104E7000007AF4EEC77AF1EE10FA06DD0A4BCDEDBA
:104E80000B7A186801A9FDF7A9FB0848FFF7B2FFE4
:104E90000DB030BD8FC2F53CD4250108BC250108FA
:104EA000342501080000C842540F0020982701084B
:104EB000F8B52020FDF7C8F91649174F174D0646DB
:104EC000FDF784FB2820FDF7BFF90446FDF782FBC0
:104ED0003B4603CB2A6861601149B3F800E093F8C0
:104EE00002C02060531C0C60304639460D4AA4F8BD
:104EF00008E084F80AC02B602662FBF769FF606255
:104F0000FDF770FB4FF496710748BDE8F840FDF7D8
:104F10004DBB00BFA027010808260108100F002084
:104F2000540F002044260108314E000843680B70DE
:104F300010B4180C1C0A1A0E4C708870CA70042029
:104F40005DF8044B704700BF0B6843600420704756
:104F5000004870470028010800487047DC27010816
:104F600010B584B000230193019B47F22F52934266
:104F700005DC019B01330193019B9342F9DD074A54
:104F80000749136808680393064C0294013302A989
:104F90001360FDF723FB04B010BD00BF580F0020C5
:104FA0005C0F0020C0270108F8B52020FDF74CF960
:104FB000124D134E29460746FDF708FB2820FDF742
:104FC00043F90446FDF706FB2B4603CB32681B78FA
:104FD000DFF838C02060616023722946531C3846D0
:104FE000084A2762CCF800403360FBF7F1FE0F213E
:104FF00060620548BDE8F840FDF7D8BAD02701083F
:10500000100F002000280108614F00085C0F0020ED
:1050100030B50121B1B0072000F0ECFB01214FF4C5
:10502000804000F0FFFB012000F096FB40F20233CD
:10503000862201A95E48CDE9012300F0CFFA0B22B8
:1050400001215B4800F022FB0B220221584800F0AE
:105050001DFB0B220721564800F018FB4FF470533C
:1050600001A95448019300F0B9FA0B220A215148D2
:1050700000F00CFB0B2211464E4800F007FB0B2200
:105080000C214C4800F002FB0B220D21494800F096
:10509000FDFA322301A94848019300F09FFA0B2240
:1050A0000121454800F0F2FA0B220421424800F0A9
:1050B000EDFA0B220521404800F0E8FA04243F4BAA
:1050C0003F480DEB0401CDE9014300F087FA21468A
:1050D0003B4800F0D9FA00230093009A44F61F637E
:1050E0009A4205D8009A01320092009A9A42F9D960
:1050F0000421334800F0C6FA00230093009A44F6D6
:105100001F639A4205D8009A01320092009A9A428F
:10511000F9D94FF4A06000F0CFFA2A4B019301A80F
:1051200000F0D4FA01214FF0606000F063FB00F062
:1051300091FB00F03FFF00F045FF0128FBD001A8E4
:1051400000F096FB00234FF4007208930C930F932A
:105150001293CDE9143316932193CDE926334FF002
:1051600000730B9222934FF400122A93042301241C
:10517000249229934FF480324FF4800321462B92DE
:105180002C934FF400524FF4804301A82D922F939B
:10519000019400F0BBFB0C4D034621460B482B60ED
:1051A00000F024FF2B6803B9FEE731B030BD00BF2B
:1051B0000000024000040240000802400102000119
:1051C000001002403D020001600F0020400001007D
:1051D00010B5002188B0084602F098F91148124C29
:1051E00007F0FCF905906FF0FF0007F0F7F9069063
:1051F0000E4807F0F3F908AB0D4A0E4943F8040DC9
:1052000002920022CDE90021204606AA05A908F055
:10521000F1F9204608F08AFA204608F08DFA08B025
:1052200010BD00BF6301A8C0605101206401A8C087
:105230008D740008696300080379827970B4056889
:1052400003F1804303F59E33EC43F2B1154A4179F3
:105250001668264016605668344054601C68254322
:105260001D6000689468C3431C409460D468102992
:1052700003EA0403D3600DD001F1804303F59E33AC
:1052800070BC1A681043186070471A6814401C609C
:1052900070BC7047936803439360D3681843D06031
:1052A00070BC7047003C0140054B1A685B690340C5
:1052B00004D0024214BF01200020704718467047F6
:1052C000003C0140014B5861704700BF003C014069
:1052D000028AF0B592B20446C8880D4622F44052C4
:1052E00002438989AB882F892282A6896889254A49
:1052F0003B43324003431343A381A38A9BB223F46D
:1053000040730B4385B0A382684600F02BFA1E4B16
:105310009C4205D003F580639C4201D0029B00E0D3
:10532000039BA2892968194D100403EB8303A2890A
:1053300003EB83034CBF49008900B3FBF1F1A5FBEC
:10534000013040096423120403FB10134FEA0010DC
:105350000AD41B013233A5FB0323C3F343130343D6
:105360009BB2238105B0F0BDDB0003F13202A5FB47
:105370000223C3F3421242EA00039BB2238105B029
:10538000F0BD00BFF3E9FFFF001001401F85EB51A6
:10539000838929B923F400531B041B0C83817047B4
:1053A00043F4005383817047C1F308018180704743
:1053B00010B401F01F04C1F342110123012903FAC3
:1053C00004F311D002290CBF1030143032B9026836
:1053D0005DF8044B22EA03030360704702685DF83E
:1053E000044B1343036070470C30EFE7C1F34212E4
:1053F00010B4012301F01F04012A03FA04F316D0AC
:10540000022A0CBF028A828A1340028892B253B1E8
:105410000123090A03FA01F10A4214BF18460020C9
:105420005DF8044B704718465DF8044B704782895D
:105430001340EAE7F0B5054685B068460E46AC88ED
:1054400000F090F902982C493368DFF8B8C0A1FB4E
:10545000002124F03F042404890C240C8FB23C4327
:10546000AC802A8822F001021204120C63452A80C3
:105470001BD85B00B0FBF3F39BB20137042B38BFA2
:1054800004232F84AB832A88B18874891B4B30890D
:1054900042F001022A802F88B2893B4021430B430E
:1054A00002432B802A8105B0F0BDF4884BF6FF72D1
:1054B00094421AD003EB830303EB8303B0FBF3F3B3
:1054C0009BB243F48043C3F30B020AB943F00103D8
:1054D0004FF496720A4802FB01F1A0FB01218909F1
:1054E000013143F400432984CCE703EB4303B0FBD1
:1054F000F3F39BB2E7E700BF83DE1B43F5FBFFFF3F
:10550000D34D6210A0860100038829B923F001035E
:105510001B041B0C0380704743F00103038070479A
:10552000038829B923F480731B041B0C0380704784
:1055300043F4807303807047038829B923F4007310
:105540001B041B0C0380704743F4007303807047F7
:1055500022B901F0FE0189B20182704741F00101D8
:1055600089B20182704700BF038829B923F48063A0
:105570001B041B0C0380704743F480630380704757
:1055800001827047008AC0B2704700BF838A028BD5
:1055900021F07F4043EA02431840401AB0FA80F0FD
:1055A0004009704782B000230A0F009301930190D5
:1055B0000092009B21F07F4153B1019B1433019372
:1055C000019B1B680B4214BF0120002002B07047F2
:1055D000019B1833090C0193F2E700BF2DE9F04756
:1055E000D1F800C0002301274FF0030E02E0013381
:1055F000102B3FD007FA03F232EA0C04F7D15C001B
:10560000D0F800800E790EFA04F5ED4308EA05089B
:10561000C0F80080D0F800A006FA04F9013E49EA7B
:105620000A09012E0EFA04F8C0F8009016D8D0F836
:1056300008904E7905EA09058560D0F808908D79C3
:10564000A64046EA09068660466826EA02024260EB
:10565000466805FA03F292B232434260C568CA79DD
:1056600025EA0805C560C568A24001332A43102B0E
:10567000C260BFD1BDE8F0870369194214BF0120A1
:10568000002070470183704741837047CB0800EBCF
:10569000830001F0070110B4036A89000F248C40D5
:1056A00023EA04030362036A5DF8044B02FA01F182
:1056B00019430162704700BF40F0BF60024B40F4E5
:1056C0000030D860704700BF00ED00E0F0B4017812
:1056D000C378012401F01F0294404D092BB92035F5
:1056E0000F4B43F82540F0BC70470E4B4678DB6803
:1056F00082780B4FD843C0F30220C0F10403DBB221
:105700009E400F230341F6B21340334339441B013B
:10571000DBB281F8003347F82540F0BC704700BF8A
:1057200000E100E000ED00E001F0FC0303F1804344
:1057300003F59C3301F0030110B49A6889000F242B
:105740008C4022EA04029A609A685DF8044B00FAE1
:1057500001F1114399607047014B1860704700BF19
:10576000DC0027421F4A936803F00C03042B10B49B
:1057700034D0082B19D01C4B03601A4A1B4994687B
:10578000C4F303140C5DE34043609468C4F38224C3
:105790000C5D23FA04F4846092685DF8044BC2F354
:1057A00042328A5CD340C360704754685168526883
:1057B0006302C2F3881201F03F014CBF0C4B0A4B4D
:1057C000B3FBF1F303FB02F3064A5268C2F3014252
:1057D00001325200B3FBF2F30360CEE7044B0360E7
:1057E000CBE700BF003802400024F400BC000020DA
:1057F00000127A00044A136B19B923EA00001063FF
:10580000704718431063704700380240044A136C15
:1058100019B923EA000010647047184310647047F8
:1058200000380240044A536C19B923EA000050645E
:10583000704718435064704700380240044A1369A7
:1058400019B923EA000010617047184310617047CE
:105850000038024008B501214FF00070FFF7EEFF5D
:1058600000214FF00070BDE80840FFF7E7BF00BF20
:1058700030B401214FF480434FF4006240252024CE
:10588000016043618021002302624FF08062056461
:1058900044644FF400154FF480344166C0E901338D
:1058A000C0E90333C0E90633C0E90933C0E90B336B
:1058B000C0E90D33C363C0E91233C0E91433C0E952
:1058C00016330366C0E91A33C0E91C334FF4800174
:1058D000C0E91E33C0F88020C0F888304FF4005271
:1058E000C0E92433C0E92633C0F8A030C0E92D3325
:1058F0004FF00073C0F88C50C0E92A41C0F8B020C6
:10590000C0F88430C0F8A43030BC7047F0B58FB018
:105910000023874A0093044601930AA815690E469E
:10592000FFF720FF0B9A834B83481344834225F0F3
:105930001C0500F2D38045F008057D4A7F481561BB
:10594000002304931369F10203F01C0389B243F0AE
:1059500003030B434FF400455561136102E0049BC0
:10596000834205D8049B013304931369DD07F6D401
:10597000049A734B9A4200F0AE80724B002202925E
:105980000293029B2BB1029B013B0293029B002BD3
:10599000F9D12368664A002B00F0B8806748684E4A
:1059A0000025019B013301930595136903F01C0346
:1059B00043F041030B43136102E0059B834205D88A
:1059C000059B013305931369DB07F6D4059BB342AE
:1059D00002D053695F0702D4019B8342E1D9019A47
:1059E000574B9A4277D00023514A0193069313698B
:1059F000524803F01C0343F003030B434FF480555C
:105A00005561136102E0069B834205D8069B013372
:105A100006931369DD07F6D4069B494DAB425AD075
:105A2000434A46480026019B0133019307961369B8
:105A300003F01C0343F041030B43136102E0079B97
:105A4000834205D8079B013307931369DB07F6D41C
:105A5000079BAB4202D053699F0602D4019B83424D
:105A6000E1D9019A364B9A4235D00023304A01934E
:105A700008931369314803F01C0343F4F86343F0BF
:105A800001030B43136102E0089B834205D8089B86
:105A9000013308931369D907F6D4089A284B9A4220
:105AA00000F0EF80224B5B6903F01C03043B0E2BDC
:105AB00000F2E780DFE813F0FB00E500E500E50019
:105AC000F500E500E500E500E500E500EF00E50094
:105AD000E500E500E80000200FB0F0BD1A4B1B49BF
